:100000000C945D000C9485000C9485000C94850084
:100010000C9485000C9485000C9485000C9485004C
:100020000C9485000C9485000C9485000C9485003C
:100030000C9485000C9485000C9485000C9485002C
:100040000C9402040C9485000C94D0030C94AA0325
:100050000C9485000C9485000C9485000C9485000C
:100060000C9485000C94850000000008000201003B
:100070000003040700000000000000000000000072
:10008000250028002B0000000000240027002A0083
:10009000040404040404040402020202020203032E
:1000A0000303030301020408102040800102040836
:1000B00010200102040810204C0411241FBECFEFB1
:1000C000D8E0DEBFCDBF11E0A0E0B1E0E0E2F4E1B6
:1000D00002C005900D92A434B107D9F722E0A4E440
:1000E000B1E001C01D92AC31B207E1F710E0CDE5FF
:1000F000D0E004C02197FE010E94080ACC35D10748
:10010000C9F70E9496040C940E0A0C94000090E02B
:10011000FC01EC55FF4F249180579F4FFC018491C7
:10012000882399F090E0880F991FFC01EA57FF4F50
:10013000A591B491FC01E458FF4F859194918FB73C
:10014000F894EC91E22BEC938FBF0895AF92BF929D
:10015000CF92DF92EF92FF920F931F93CF93DF9393
:100160006C017B018B01040F151FEB015E01AE18C2
:10017000BF08C017D10759F06991D601ED91FC91E4
:100180000190F081E02DC6010995892B79F7C50111
:10019000DF91CF911F910F91FF90EF90DF90CF9063
:1001A000BF90AF900895FC01538D448D252F30E012
:1001B000842F90E0821B930B541710F0CF96089574
:1001C00001970895FC01918D828D981761F0A28DA1
:1001D000AE0FBF2FB11D5D968C91928D9F5F9F7367
:1001E000928F90E008958FEF9FEF0895FC01918D1D
:1001F000828D981731F0828DE80FF11D858D90E08A
:1002000008958FEF9FEF0895FC01918D228D892F26
:1002100090E0805C9F4F821B91098F73992708950E
:1002200087E691E00E94040121E0892B09F420E097
:10023000822F089580E090E0892B29F00E94100120
:1002400081110C9400000895FC01A48DA80FB92F12
:10025000B11DA35ABF4F2C91848D90E001968F73EE
:100260009927848FA689B7892C93A089B1898C910D
:10027000837080648C93938D848D981306C002885C
:10028000F389E02D80818F7D80830895EF92FF9226
:100290000F931F93CF93DF93EC0181E0888F9B8DA9
:1002A0008C8D98131AC0E889F989808185FF15C063
:1002B0009FB7F894EE89FF896083E889F989808186
:1002C0008370806480839FBF81E090E0DF91CF9155
:1002D0001F910F91FF90EF900895F62E0B8D10E077
:1002E0000F5F1F4F0F731127E02E8C8D8E110CC0E6
:1002F0000FB607FCFACFE889F989808185FFF5CF31
:10030000CE010E942401F1CFEB8DEC0FFD2FF11DEA
:10031000E35AFF4FF0829FB7F8940B8FEA89FB896D
:1003200080818062CFCFCF93DF93EC01888D8823CB
:10033000B9F0AA89BB89E889F9898C9185FD03C048
:10034000808186FD0DC00FB607FCF7CF8C9185FF2D
:10035000F2CF808185FFEDCFCE010E942401E9CF4D
:10036000DF91CF91089590E0FC01E859FF4F24916F
:10037000FC01EC55FF4F3491FC01E057FF4FE49135
:10038000EE23C9F0222339F0233001F1A8F4213003
:1003900019F1223029F1F0E0EE0FFF1FE458FF4F72
:1003A000A591B4918FB7F894EC91611126C0309566
:1003B0003E233C938FBF08952730A9F02830C9F021
:1003C000243049F7809180008F7D03C080918000A8
:1003D0008F7780938000DFCF84B58F7784BDDBCFAC
:1003E00084B58F7DFBCF8091B0008F778093B00074
:1003F000D2CF8091B0008F7DF9CF3E2BDACF8E50D7
:10040000806480937C0080917A00806480937A007D
:1004100080917A0086FDFCCF8091780090917900E0
:100420000895089590E080E00895FC010190002077
:10043000E9F73197AF01481B590BBC0184E092E00A
:100440000C94A6008F929F92AF92BF920F931F932E
:10045000CF93DF93CDB7DEB7A1970FB6F894DEBF89
:100460000FBECDBF19A2423008F44AE08E010F5DE5
:100470001F4F842E912CB12CA12CA50194010E9418
:10048000E609E62FB901CA01EA30F4F4E05DD801CB
:10049000EE938D01232B242B252B79F790E080E020
:1004A000109719F0CD010E941502A1960FB6F8948D
:1004B000DEBF0FBECDBFDF91CF911F910F91BF90D7
:1004C000AF909F908F900895E95CE1CFCF93DF9339
:1004D000EC0160E08E810E94B30161E08E810E9498
:1004E000B30160E08E810E94B3018BE891E0019737
:1004F000F1F7DF91CF910895CF92DF92EF92FF92C3
:100500000F931F93CF93DF936C017C0187E0E80E7C
:10051000F11CD0E0C0E0062F10E0B8010C2E02C0A4
:10052000759567950A94E2F76170F70181917F01F3
:100530000E94B3012196C430D10579F7C601DF913D
:10054000CF911F910F91FF90EF90DF90CF900C947F
:100550006602CF92DF92EF92FF920F931F93CF9399
:10056000DF93EC01F62E642F8C810E94B3018D8104
:100570008F3F19F060E00E94B3010F2D10E08F85CE
:1005800084FF25C06E0187E0C80ED11CF12CE12C40
:10059000B8010E2C02C0759567950A94E2F7617058
:1005A000F60181916F010E94B301FFEFEF1AFF0A7C
:1005B00088E0E816F10461F7CE01DF91CF911F9139
:1005C0000F91FF90EF90DF90CF900C946602B801EE
:1005D00084E0759567958A95E1F7CE010E947C02CB
:1005E0006F2DCE01DF91CF911F910F91FF90EF9072
:1005F000DF90CF900C947C0240E0682F84E092E082
:100600000C94A902CF93DF93823029F490911302C6
:10061000986090931302809317021092180280E45E
:100620008093190280E180931A0280E580931B0277
:10063000809108020E948700809109028F3F11F08B
:100640000E94870080910A020E948700C4E0D2E0E5
:100650009E01245032408091130284FD0AC084E040
:1006600090E02196281739073CF48E810E9487007C
:10067000EFCF88E090E0F5CF8BE39DE00197F1F7B5
:1006800060E0809108020E94B30160E080910A025C
:100690000E94B301809109028F3F19F060E00E942F
:1006A000B3018091130284FD39C063E084E092E0DD
:1006B0000E947C02CBE4D6E4CE010197F1F763E01F
:1006C00084E092E00E947C022197F1F763E084E0ED
:1006D00092E00E947C0283E592E00197F1F762E0EC
:1006E00084E092E00E947C028091130280620E946A
:1006F000FC0284E0809314028CE00E94FC0281E002
:100700000E94FC028BE39FE10197F1F782E0809366
:10071000150286E0DF91CF910C94FC0280620E946A
:10072000FC028BE496E40197F1F78091130280625A
:100730000E94FC0283E592E00197F1F78091130299
:1007400080620E94FC02D0CF41E00E94A90281E0B9
:1007500090E008951F920F920FB60F9211242F93DD
:100760003F934F935F936F937F938F939F93AF9339
:10077000BF93EF93FF9387E691E00E942401FF91DE
:10078000EF91BF91AF919F918F917F916F915F9109
:100790004F913F912F910F900FBE0F901F90189582
:1007A0001F920F920FB60F9211242F938F939F9346
:1007B000EF93FF93E0917701F09178018081E091D0
:1007C0007D01F0917E0182FD1BC0908180918001AE
:1007D0008F5F8F7320918101821741F0E09180013A
:1007E000F0E0E959FE4F958F80938001FF91EF91E2
:1007F0009F918F912F910F900FBE0F901F90189582
:100800008081F4CF1F920F920FB60F9211242F9375
:100810003F938F939F93AF93BF93809149019091A2
:100820004A01A0914B01B0914C013091480123E065
:10083000230F2D3758F50196A11DB11D20934801B6
:100840008093490190934A01A0934B01B0934C01CE
:100850008091440190914501A0914601B0914701DA
:100860000196A11DB11D8093440190934501A09371
:100870004601B0934701BF91AF919F918F913F91F6
:100880002F910F900FBE0F901F90189526E8230F01
:100890000296A11DB11DD2CFE7E6F1E013821282CC
:1008A00088EE93E0A0E0B0E084839583A683B783CD
:1008B00084E091E09183808385EC90E09587848744
:1008C00084EC90E09787868780EC90E0918B808B1A
:1008D00081EC90E0938B828B82EC90E0958B848B03
:1008E00086EC90E0978B868B118E128E138E148E71
:1008F000E4E0F2E01382128286E191E0918380834A
:100900008DE084838FEF85838CE0868385E0878309
:1009100084E0808783E0818782E082871386148663
:1009200015861686178681E00C940203CF93DF9319
:10093000CDB7DEB728970FB6F894DEBF0FBECDBF98
:10094000789484B5826084BD84B5816084BD85B5AA
:10095000826085BD85B5816085BD80916E008160B6
:1009600080936E001092810080918100826080935C
:10097000810080918100816080938100809180005E
:100980008160809380008091B10084608093B10089
:100990008091B00081608093B00080917A00846083
:1009A00080937A0080917A00826080937A008091AF
:1009B0007A00816080937A0080917A0080688093C9
:1009C0007A001092C100E0917701F091780182E005
:1009D0008083E0917301F09174011082E0917501C0
:1009E000F09176018FEC808310927F01E0917B0182
:1009F000F0917C0186E08083E0917901F0917A01A9
:100A0000808180618083E0917901F0917A01808119
:100A100088608083E0917901F0917A01808180681B
:100A20008083E0917901F0917A0180818F7D8083CC
:100A30008DE00E9487008CE00E9487008AE00E947F
:100A4000870089E00E94870088E00E94870085E097
:100A50000E94870084E00E94870083E00E94870054
:100A600082E00E94870082E00E94020360E08AE048
:100A70000E94B30160E089E00E94B30160E088E079
:100A80000E94B30180E0282E80E0382E81E10E9490
:100A9000FF019E838D83909366018093650182E1BF
:100AA0000E94FF015C0190936401809363018EE0DA
:100AB0000E94FF017C0190936201809361018FE0AD
:100AC0000E94FF018C01B701FF0C880B990B0E945B
:100AD000BF0820E030EC4FE754E40E94150820E006
:100AE00030E040EA50E40E9474096B017C01C0923E
:100AF0005D01D0925E01E0925F01F0926001B5016C
:100B0000BB0C880B990B0E94BF0820E030EC4FE72C
:100B100054E40E9415089B01AC010E94A40720E048
:100B200030E040EA50E40E947409A70196010E9457
:100B3000A3074B015C018092590190925A01A09247
:100B40005B01B0925C01AC019B01C701B6010E9440
:100B5000A40769837A838B839C832D813E81B901AD
:100B6000330F880B990B0E94BF0820E030EC4FE751
:100B700054E40E94150820E030E040EA50E40E946E
:100B800074099B01AC010E94A40729813A814B8121
:100B90005C810E94A3072B013C01409255015092B9
:100BA00056016092570170925801B801110F880BDD
:100BB000990B0E94BF0820E030EC4FE754E40E94FC
:100BC000150820E030E040EA50E40E9474092AE071
:100BD00037ED43E25CE30E94150820E030E048E492
:100BE00052E40E94A3076D837E838F83988760936E
:100BF000510170935201809353019093540120E06E
:100C000030E040E050E4C701B6010E94100887FDC3
:100C100014C020E030E040E050E4C501B4010E947F
:100C2000100887FD0AC020E030E040E050E4C30136
:100C3000B2010E94100887FF04C061E08AE00E94B0
:100C4000B301A301920169817A818B819C810E9409
:100C5000A40720E030E040EC50E40E946F09181631
:100C60000CF0C5C061E088E00E94B30180E10E9401
:100C7000FF01BC01990F880B990B0E94BF0820E06F
:100C800030EC4FE754E40E94150820E030E040EAE1
:100C900050E40E94740960934D0170934E0180935B
:100CA0004F019093500120E030E040E252E46D812A
:100CB0007E818F8198850E946F0961E087FD60E0E9
:100CC00089E00E94B3018EE191E00E941502E0915B
:100CD0001702E23008F098C0E150F0E0EC5FFD4F01
:100CE000848980680E94FC0220E030E040E050E40B
:100CF00060915D0170915E0180915F019091600152
:100D00000E946F0987FD82C08FE291E00E94150268
:100D100020E030E040E050E46091590170915A01C8
:100D200080915B0190915C010E946F0987FD71C009
:100D30008FE291E00E94150220E030E040E050E4B4
:100D40006091550170915601809157019091580121
:100D50000E946F0987FD60C08FE291E00E9415023A
:100D60006091510170915201809153019091540111
:100D70000E9487086B01770FEE08FF084AE0C70161
:100D8000B601F7FE0EC041E06DE284E092E00E9401
:100D9000A90266277727CB016C197D098E099F0967
:100DA0004AE00E94220285E391E00E941502C09071
:100DB0004D01D0904E01E0904F01F0905001A701FD
:100DC0009601C701B6010E94E109882341F187E33A
:100DD00091E00E9415022114310409F457CE0E94BB
:100DE0001001882309F452CE0E9400004FCE60E02B
:100DF00088E00E94B30110924D0110924E011092B2
:100E00004F01109250014FCFE1E067CF83E391E0B3
:100E10007DCF83E391E08ECF83E391E09FCF4601C6
:100E20005701E894B7F82FEF3FEF4FE75FE7C501B1
:100E3000B4010E94E10981110DC02FEF3FEF4FE790
:100E40005FE7C501B4010E94100818161CF48BE37B
:100E500091E0BFCF2FEF3FEF4FE75FE4C701B6014F
:100E60000E946F0918161CF48FE391E0B2CF2FEFA8
:100E70003FEF4FE75FECC701B6010E94100887FD06
:100E8000F3CF20E030E0A901C701B6010E941008AD
:100E900087FF0AC041E06DE284E092E00E94A9026F
:100EA000F7FAF094F7F8F0942AE037ED43EA5BE3C1
:100EB000C701B6010E94A4074B015C010E948E0885
:100EC0006B017C010E94BD089B01AC01C501B4010E
:100ED0000E94A3074B015C014AE0C701B6010E94D2
:100EE000220241E06EE284E092E00E94A90220E04A
:100EF00030E040E251E4C501B4010E9474094B01A5
:100F00005C010E948E086B01F12CE12C4AE0C701C4
:100F1000B6010E942202C701B6010E94BD089B01D2
:100F2000AC01C501B4010E94A30720E030E040E21B
:100F300051E40E9474090E948E0890E080E04AE02B
:100F40000E94220248CF5058BB27AA270E94BB0705
:100F50000C9435090E94270938F00E942E0920F0D0
:100F600039F49F3F19F426F40C9424090EF4E0950B
:100F7000E7FB0C941E09E92F0E94460958F3BA17A3
:100F8000620773078407950720F079F4A6F50C949F
:100F900068090EF4E0950B2EBA2FA02D0B01B901B4
:100FA00090010C01CA01A0011124FF27591B99F0DF
:100FB000593F50F4503E68F11A16F040A22F232FEB
:100FC000342F4427585FF3CF469537952795A7953B
:100FD000F0405395C9F77EF41F16BA0B620B730BE2
:100FE000840BBAF09150A1F0FF0FBB1F661F771F53
:100FF000881FC2F70EC0BA0F621F731F841F48F408
:10100000879577956795B795F7959E3F08F0B0CF90
:101010009395880F08F09927EE0F97958795089577
:101020000E94FA0808F481E008950E9429080C94AF
:1010300035090E942E0958F00E94270940F029F432
:101040005F3F29F00C941E0951110C9469090C940E
:1010500024090E94460968F39923B1F3552391F3BB
:10106000951B550BBB27AA2762177307840738F017
:101070009F5F5F4F220F331F441FAA1FA9F335D074
:101080000E2E3AF0E0E832D091505040E695001C28
:10109000CAF72BD0FE2F29D0660F771F881FBB1FE2
:1010A000261737074807AB07B0E809F0BB0B802DC0
:1010B000BF01FF2793585F4F3AF09E3F510578F0EC
:1010C0000C941E090C9469095F3FE4F3983ED4F335
:1010D000869577956795B795F7959F5FC9F7880FC0
:1010E000911D9695879597F90895E1E0660F771F12
:1010F000881FBB1F621773078407BA0720F0621BA3
:10110000730B840BBA0BEE1F88F7E09508950E94CD
:101110008E086894B1110C94690908950E944E09D3
:1011200088F09F5798F0B92F9927B751B0F0E1F0A8
:10113000660F771F881F991F1AF0BA95C9F714C058
:10114000B13091F00E946809B1E008950C946809EB
:10115000672F782F8827B85F39F0B93FCCF3869591
:1011600077956795B395D9F73EF4909580957095EE
:1011700061957F4F8F4F9F4F0895E89409C097FB6B
:101180003EF490958095709561957F4F8F4F9F4F5E
:101190009923A9F0F92F96E9BB279395F6958795A2
:1011A00077956795B795F111F8CFFAF4BB0F11F465
:1011B00060FF1BC06F5F7F4F8F4F9F4F16C088230C
:1011C00011F096E911C0772321F09EE8872F762F42
:1011D00005C0662371F096E8862F70E060E02AF083
:1011E0009A95660F771F881FDAF7880F969587956F
:1011F00097F90895990F0008550FAA0BE0E8FEEF44
:1012000016161706E807F907C0F012161306E407CA
:10121000F50798F0621B730B840B950B39F40A26C3
:1012200061F0232B242B252B21F408950A2609F4A1
:10123000A140A6958FEF811D811D089597F99F67A5
:1012400080E870E060E008959FEF80EC089500244E
:101250000A941616170618060906089500240A941B
:1012600012161306140605060895092E0394000CA1
:1012700011F4882352F0BB0F40F4BF2B11F460FF30
:1012800004C06F5F7F4F8F4F9F4F089557FD905859
:10129000440F551F59F05F3F71F04795880F97FB3A
:1012A000991F61F09F3F79F08795089512161306F4
:1012B0001406551FF2CF4695F1DF08C01616170623
:1012C0001806991FF1CF8695710561050894089558
:1012D000E894BB2766277727CB0197F908950E94EA
:1012E000FA0808F48FEF08950E9487090C943509D5
:1012F0000E94270938F00E942E0920F0952311F052
:101300000C941E090C94240911240C9469090E9460
:10131000460970F3959FC1F3950F50E0551F629FEA
:10132000F001729FBB27F00DB11D639FAA27F00D3E
:10133000B11DAA1F649F6627B00DA11D661F829F65
:101340002227B00DA11D621F739FB00DA11D621F4A
:10135000839FA00D611D221F749F3327A00D611D67
:10136000231F849F600D211D822F762F6A2F112449
:101370009F5750409AF0F1F088234AF0EE0FFF1F7C
:10138000BB1F661F771F881F91505040A9F79E3FD3
:10139000510580F00C941E090C9469095F3FE4F339
:1013A000983ED4F3869577956795B795F795E79529
:1013B0009F5FC1F7FE2B880F911D9695879597F932
:1013C00008950E94FA08880B990B0895A1E21A2E3D
:1013D000AA1BBB1BFD010DC0AA1FBB1FEE1FFF1FD9
:1013E000A217B307E407F50720F0A21BB30BE40B29
:1013F000F50B661F771F881F991F1A9469F7609570
:101400007095809590959B01AC01BD01CF01089529
:10141000EE0FFF1F0590F491E02D0994F894FFCF93
:10142000000000004601A600D30093010401E20081
:10143000F60000000000A403A600120211024231CF
:101440002042322042332054202043757272004FD4
:101450002020004C2020006E616E00696E66006FD7
:0414600076660000AC
:00000001FF
