:100000000C945D000C9485000C9485000C94850084
:100010000C9485000C9485000C9485000C9485004C
:100020000C9485000C9485000C9485000C9485003C
:100030000C9485000C9485000C9485000C9485002C
:100040000C94F0040C9485000C94BE040C94980459
:100050000C9485000C9485000C9485000C9485000C
:100060000C9485000C94850000000008000201003B
:100070000003040700000000000000000000000072
:10008000250028002B0000000000240027002A0083
:10009000040404040404040402020202020203032E
:1000A0000303030301020408102040800102040836
:1000B00010200102040810203A0511241FBECFEFC2
:1000C000D8E0DEBFCDBF11E0A0E0B1E0EEE0F5E1A9
:1000D00002C005900D92AC35B107D9F722E0ACE52E
:1000E000B1E001C01D92AA33B207E1F710E0CDE5FF
:1000F000D0E004C02197FE010E947F0ACC35D107D1
:10010000C9F70E9484050C94850A0C94000090E0C5
:10011000FC01EC55FF4F249180579F4FFC018491C7
:10012000882399F090E0880F991FFC01EA57FF4F50
:10013000A591B491FC01E458FF4F859194918FB73C
:10014000F894EC91E22BEC938FBF0895AF92BF929D
:10015000CF92DF92EF92FF920F931F93CF93DF9393
:100160006C017B018B01040F151FEB015E01AE18C2
:10017000BF08C017D10759F06991D601ED91FC91E4
:100180000190F081E02DC6010995892B79F7C50111
:10019000DF91CF911F910F91FF90EF90DF90CF9063
:1001A000BF90AF900895FC01538D448D252F30E012
:1001B000842F90E0821B930B541710F0CF96089574
:1001C00001970895FC01918D828D981761F0A28DA1
:1001D000AE0FBF2FB11D5D968C91928D9F5F9F7367
:1001E000928F90E008958FEF9FEF0895FC01918D1D
:1001F000828D981731F0828DE80FF11D858D90E08A
:1002000008958FEF9FEF0895FC01918D228D892F26
:1002100090E0805C9F4F821B91098F73992708950E
:1002200085E891E00E94040121E0892B09F420E097
:10023000822F089580E090E0892B29F00E94100120
:1002400081110C9400000895FC01A48DA80FB92F12
:10025000B11DA35ABF4F2C91848D90E001968F73EE
:100260009927848FA689B7892C93A089B1898C910D
:10027000837080648C93938D848D981306C002885C
:10028000F389E02D80818F7D80830895EF92FF9226
:100290000F931F93CF93DF93EC0181E0888F9B8DA9
:1002A0008C8D98131AC0E889F989808185FF15C063
:1002B0009FB7F894EE89FF896083E889F989808186
:1002C0008370806480839FBF81E090E0DF91CF9155
:1002D0001F910F91FF90EF900895F62E0B8D10E077
:1002E0000F5F1F4F0F731127E02E8C8D8E110CC0E6
:1002F0000FB607FCFACFE889F989808185FFF5CF31
:10030000CE010E942401F1CFEB8DEC0FFD2FF11DEA
:10031000E35AFF4FF0829FB7F8940B8FEA89FB896D
:1003200080818062CFCFCF93DF93EC01888D8823CB
:10033000B9F0AA89BB89E889F9898C9185FD03C048
:10034000808186FD0DC00FB607FCF7CF8C9185FF2D
:10035000F2CF808185FFEDCFCE010E942401E9CF4D
:10036000DF91CF91089590E0FC01E859FF4F24916F
:10037000FC01EC55FF4F3491FC01E057FF4FE49135
:10038000EE23C9F0222339F0233001F1A8F4213003
:1003900019F1223029F1F0E0EE0FFF1FE458FF4F72
:1003A000A591B4918FB7F894EC91611126C0309566
:1003B0003E233C938FBF08952730A9F02830C9F021
:1003C000243049F7809180008F7D03C080918000A8
:1003D0008F7780938000DFCF84B58F7784BDDBCFAC
:1003E00084B58F7DFBCF8091B0008F778093B00074
:1003F000D2CF8091B0008F7DF9CF3E2BDACF8E50D7
:10040000806480937C0080917A00806480937A007D
:1004100080917A0086FDFCCF8091780090917900E0
:100420000895089590E080E00895FC010190002077
:10043000E9F73197AF01481B590BBC0182E292E00A
:100440000C94A6008F929F92AF92BF920F931F932E
:10045000CF93DF93CDB7DEB7A1970FB6F894DEBF89
:100460000FBECDBF19A2423008F44AE08E010F5DE5
:100470001F4F842E912CB12CA12CA50194010E9418
:100480005D0AE62FB901CA01EA30F4F4E05DD80153
:10049000EE938D01232B242B252B79F790E080E020
:1004A000109719F0CD010E941502A1960FB6F8948D
:1004B000DEBF0FBECDBFDF91CF911F910F91BF90D7
:1004C000AF909F908F900895E95CE1CF0C94150256
:1004D000CF93DF93EC0160E08E810E94B30161E075
:1004E0008E810E94B30160E08E810E94B3018BE88F
:1004F00091E00197F1F7DF91CF910895CF92DF92CC
:10050000EF92FF920F931F93CF93DF936C017C01C7
:1005100087E0E80EF11CD0E0C0E0062F10E0B80143
:100520000C2E02C0759567950A94E2F76170F70189
:1005300081917F010E94B3012196C430D10579F7E2
:10054000C601DF91CF911F910F91FF90EF90DF9047
:10055000CF900C946802CF92DF92EF92FF920F93AC
:100560001F93CF93DF93EC01F62E642F8C810E94B2
:10057000B3018D818F3F19F060E00E94B3010F2D10
:1005800010E08F8584FF25C06E0187E0C80ED11C66
:10059000F12CE12CB8010E2C02C0759567950A94D8
:1005A000E2F76170F60181916F010E94B301FFEFE4
:1005B000EF1AFF0A88E0E816F10461F7CE01DF9137
:1005C000CF911F910F91FF90EF90DF90CF900C94FF
:1005D0006802B80184E0759567958A95E1F7CE01C8
:1005E0000E947E026F2DCE01DF91CF911F910F915E
:1005F000FF90EF90DF90CF900C947E0240E0682F48
:1006000082E292E00C94AB02CF93DF93813029F029
:10061000909131029860909331028093350210924C
:10062000360280E48093370280E18093380280E5CF
:1006300080933902809126020E94870080912702D0
:100640008F3F11F00E948700809128020E9487004E
:10065000C2E2D2E09E01225232408091310284FDFA
:100660000AC084E090E02196281739073CF48E8177
:100670000E948700EFCF88E090E0F5CF8BE39DE00C
:100680000197F1F760E0809126020E94B30160E0DB
:10069000809128020E94B301809127028F3F19F0B8
:1006A00060E00E94B3018091310284FD39C063E0B3
:1006B00082E292E00E947E02CBE4D6E4CE01019772
:1006C000F1F763E082E292E00E947E022197F1F767
:1006D00063E082E292E00E947E0283E592E001976D
:1006E000F1F762E082E292E00E947E0280913102A4
:1006F00080620E94FE0284E0809332028CE00E94BD
:10070000FE0281E00E94FE028BE39FE10197F1F778
:1007100082E08093330286E0DF91CF910C94FE0259
:1007200080620E94FE028BE496E40197F1F78091CB
:10073000310280620E94FE0283E592E00197F1F7A8
:100740008091310280620E94FE02D0CF90913502EA
:10075000891710F08FEF890FE82FF0E0EE5DFD4F65
:10076000848980680C94FE0241E00E94AB0281E023
:1007700090E008954F925F926F927F928F929F9236
:10078000AF92BF92CF92DF92EF92FF920F931F939F
:10079000CF936B017C01742EAC019B010E94580A1F
:1007A000882399F08EE191E0CF911F910F91FF90F6
:1007B000EF90DF90CF90BF90AF909F908F907F9001
:1007C0006F905F904F900C94150246015701E8948A
:1007D000B7F82FEF3FEF4FE75FE7C501B4010E9485
:1007E000580A81110DC02FEF3FEF4FE75FE7C501BA
:1007F000B4010E948E0818161CF482E291E0D4CF56
:100800002FEF3FEF4FE75FE4C701B6010E94E60913
:1008100018161CF486E291E0C7CF2FEF3FEF4FE7A9
:100820005FECC701B6010E948E0887FDF3CF20E080
:1008300030E0A901C701B6010E948E0810E000E077
:1008400087FF0CC041E06DE282E292E00E94AB02C1
:10085000F7FAF094F7F8F09401E010E0C0E060E0FF
:1008600070E080E09FE37C1641F020E030E040E261
:1008700051E40E949308CF5FF6CFA70196010E9432
:1008800022084B015C010E9405092B013C014AE052
:100890000E942202080F191FCC23C9F1C301B20123
:1008A0000E9434099B01AC01C501B4010E942108DA
:1008B0004B015C0141E06EE282E292E00E94AB02F9
:1008C0000F5F1F4FC15018F120E030E040E251E4CB
:1008D000C501B4010E94EB092B013C010E940509EE
:1008E0004B01B12CA12C4AE0C501B4010E942202A7
:1008F000080F191FC501B4010E9434099B01AC0106
:10090000C301B2010E9421084B015C01DBCFC80189
:10091000CF911F910F91FF90EF90DF90CF90BF90FC
:10092000AF909F908F907F906F905F904F900895C1
:100930001F920F920FB60F9211242F933F934F9354
:100940005F936F937F938F939F93AF93BF93EF9337
:10095000FF9385E891E00E942401FF91EF91BF9100
:10096000AF919F918F917F916F915F914F913F9147
:100970002F910F900FBE0F901F9018951F920F92FE
:100980000FB60F9211242F938F939F93EF93FF93A2
:10099000E0919501F09196018081E0919B01F091A9
:1009A0009C0182FD1BC0908180919E018F5F8F739F
:1009B00020919F01821741F0E0919E01F0E0EB57FA
:1009C000FE4F958F80939E01FF91EF919F918F91A4
:1009D0002F910F900FBE0F901F9018958081F4CF2C
:1009E0001F920F920FB60F9211242F933F938F9364
:1009F0009F93AF93BF938091610190916201A09109
:100A00006301B09164013091600123E0230F2D3721
:100A100058F50196A11DB11D2093600180936101DD
:100A200090936201A0936301B093640180915C0193
:100A300090915D01A0915E01B0915F010196A11DB1
:100A4000B11D80935C0190935D01A0935E01B09312
:100A50005F01BF91AF919F918F913F912F910F9027
:100A60000FBE0F901F90189526E8230F0296A11D28
:100A7000B11DD2CFE5E8F1E01382128288EE93E057
:100A8000A0E0B0E084839583A683B78384E091E0FF
:100A90009183808385EC90E09587848784EC90E057
:100AA0009787868780EC90E0918B808B81EC90E03B
:100AB000938B828B82EC90E0958B848B86EC90E01C
:100AC000978B868B118E128E138E148EE2E2F2E0DB
:100AD0001382128286E191E0918380838DE084838A
:100AE0008FEF85838CE0868385E0878384E0808731
:100AF00083E0818782E082871386148615861686B6
:100B0000178681E00C940403CF93DF9300D000D0CC
:100B100000D0CDB7DEB7789484B5826084BD84B54B
:100B2000816084BD85B5826085BD85B5816085BDE8
:100B300080916E00816080936E00109281008091A0
:100B40008100826080938100809181008160809328
:100B50008100809180008160809380008091B1004D
:100B600084608093B1008091B00081608093B00078
:100B700080917A00846080937A0080917A0082600C
:100B800080937A0080917A00816080937A008091CE
:100B90007A00806880937A001092C100E0919501FC
:100BA000F091960182E08083E0919101F0919201B1
:100BB0001082E0919301F09194018FEC8083109268
:100BC0009D01E0919901F0919A0186E08083E09186
:100BD0009701F0919801808180618083E091970175
:100BE000F0919801808188608083E0919701F09175
:100BF0009801808180688083E0919701F09198014D
:100C000080818F7D80838DE00E9487008CE00E9430
:100C100087008AE00E94870089E00E94870088E0C0
:100C20000E94870085E00E94870084E00E94870080
:100C300083E00E94870082E00E94870084E00E9497
:100C4000040360E08AE00E94B30160E089E00E9452
:100C5000B30161E088E00E94B30100E010E081E1AF
:100C60000E94FF013C01909384018093830182E103
:100C70000E94FF015C01909382018093810183E1D6
:100C80000E94FF017C019093800180937F018FE09F
:100C90000E94FF019A838983B701FF0C880B990B8F
:100CA0000E94360920E030EC4FE754E40E9493089C
:100CB00020E030E040EA50E40E94EB096B017C0147
:100CC000C0927B01D0927C01E0927D01F0927E0186
:100CD000B501BB0C880B990B0E94360920E030EC63
:100CE0004FE754E40E94930820E030E040EA50E4EB
:100CF0000E94EB09A70196010E9421084B015C01AB
:100D00008092770190927801A0927901B0927A0155
:100D1000B301770C880B990B0E94360920E030EC68
:100D20004FE754E40E94930820E030E040EA50E4AA
:100D30000E94EB099B01AC010E9422082B013C019F
:100D4000A5019401C701B6010E9422089B01AC01D4
:100D5000C301B2010E9421082B013C0140927301A2
:100D600050927401609275017092760129813A81E6
:100D7000B901330F880B990B0E94360920E030EC43
:100D80004FE754E40E94930820E030E040EA50E44A
:100D90000E94EB099B01AC0160E070E080EA90E406
:100DA0000E9421082AE037ED43E25CE30E949308A9
:100DB00020E030E04AE753E40E94210869837A8307
:100DC0008B839C8360936F0170937001809371019A
:100DD0009093720181E090E09E838D832AE939E946
:100DE00049EF5FE3C301B2010E94E60987FF02C039
:100DF0001E821D82AD81BE81B0936E01A0936D01F4
:100E000021E030E03E832D832AE939E949EF5FE3B1
:100E1000C501B4010E94E60987FF02C01E821D823F
:100E20008D819E8190936C0180936B01A1E0B0E075
:100E3000BE83AD832AE939E949EF5FE3C701B60113
:100E40000E94E60987FF02C01E821D822D813E811D
:100E500030936A01209369012AE939E949EF5FE398
:100E6000C301B2010E948E0887FD14C02AE939E946
:100E700049EF5FE3C501B4010E948E0887FD0AC0F7
:100E80002AE939E949EF5FE3C701B6010E948E08FC
:100E900087FF04C061E08AE00E94B301A3019201D0
:100EA000C501B4010E942208A70196010E942208F0
:100EB00020E030E040EA50E40E94E60918160CF009
:100EC000AAC061E088E00E94B30180E10E94FF01B6
:100ED000BC01990F880B990B0E94360920E030EC79
:100EE0004FE754E40E94930820E030E040EA50E4E9
:100EF0000E94EB0920E030E040E250E40E9421082B
:100F000024EA30E74DE35EE30E94930820E030E0FE
:100F10004AE754E40E94EB0960936501709366010F
:100F2000809367019093680120E030E040E252E452
:100F300069817A818B819C810E94E60961E087FD4D
:100F400060E089E00E94B30180E00E94A6038AE28B
:100F500091E00E94660281E00E94A60380916D01EB
:100F600090916E01019709F063C08BE391E00E94BC
:100F7000660281E491E00E94660280916B0190918B
:100F80006C01019709F057C08BE391E00E94660263
:100F900081E491E00E9466028091690190916A016A
:100FA000019709F04BC08BE391E00E94660282E05A
:100FB0000E94A60387E491E00E94660260916501A9
:100FC00070916601809167019091680142E00E94F2
:100FD000BA038FE491E00E94660283E00E94A603B8
:100FE00083E591E00E94660260916F01709170014B
:100FF000809171019091720142E00E94BA03011543
:10100000110509F42CCE0E941001882309F427CE83
:101010000E94000024CE60E088E00E94B30110929C
:1010200065011092660110926701109268017CCFF1
:101030008EE391E09CCF8EE391E0A8CF8EE391E028
:10104000B4CF5058BB27AA270E9439080C94AC098A
:101050000E949E0938F00E94A50920F039F49F3FB4
:1010600019F426F40C949B090EF4E095E7FB0C941C
:101070009509E92F0E94BD0958F3BA176207730753
:101080008407950720F079F4A6F50C94DF090EF497
:10109000E0950B2EBA2FA02D0B01B90190010C0188
:1010A000CA01A0011124FF27591B99F0593F50F4A0
:1010B000503E68F11A16F040A22F232F342F4427F8
:1010C000585FF3CF469537952795A795F0405395F0
:1010D000C9F77EF41F16BA0B620B730B840BBAF0C0
:1010E0009150A1F0FF0FBB1F661F771F881FC2F72B
:1010F0000EC0BA0F621F731F841F48F4879577953F
:101100006795B795F7959E3F08F0B0CF9395880FF8
:1011100008F09927EE0F9795879508950E94710919
:1011200008F481E008950E94A7080C94AC090E947D
:10113000A50958F00E949E0940F029F45F3F29F06C
:101140000C94950951110C94E0090C949B090E9490
:10115000BD0968F39923B1F3552391F3951B550B02
:10116000BB27AA2762177307840738F09F5F5F4F7A
:10117000220F331F441FAA1FA9F335D00E2E3AF0B9
:10118000E0E832D091505040E695001CCAF72BD0D1
:10119000FE2F29D0660F771F881FBB1F2617370722
:1011A0004807AB07B0E809F0BB0B802DBF01FF2754
:1011B00093585F4F3AF09E3F510578F00C94950993
:1011C0000C94E0095F3FE4F3983ED4F3869577955D
:1011D0006795B795F7959F5FC9F7880F911D96950D
:1011E000879597F90895E1E0660F771F881FBB1F69
:1011F000621773078407BA0720F0621B730B840B16
:10120000BA0BEE1F88F7E09508950E94C50988F093
:101210009F5798F0B92F9927B751B0F0E1F0660FBA
:10122000771F881F991F1AF0BA95C9F714C0B130FB
:1012300091F00E94DF09B1E008950C94DF09672F57
:10124000782F8827B85F39F0B93FCCF3869577952A
:101250006795B395D9F73EF4909580957095619513
:101260007F4F8F4F9F4F0895E89409C097FB3EF43E
:1012700090958095709561957F4F8F4F9F4F9923E3
:10128000A9F0F92F96E9BB279395F6958795779561
:101290006795B795F111F8CFFAF4BB0F11F460FF21
:1012A0001BC06F5F7F4F8F4F9F4F16C0882311F079
:1012B00096E911C0772321F09EE8872F762F05C08D
:1012C000662371F096E8862F70E060E02AF09A9528
:1012D000660F771F881FDAF7880F9695879597F91D
:1012E0000895990F0008550FAA0BE0E8FEEF1616B7
:1012F0001706E807F907C0F012161306E407F5070A
:1013000098F0621B730B840B950B39F40A2661F07D
:10131000232B242B252B21F408950A2609F4A14020
:10132000A6958FEF811D811D089597F99F6780E82D
:1013300070E060E008959FEF80EC089500240A9427
:101340001616170618060906089500240A941216A0
:101350001306140605060895092E0394000C11F4D3
:10136000882352F0BB0F40F4BF2B11F460FF04C080
:101370006F5F7F4F8F4F9F4F089557FD9058440FD9
:10138000551F59F05F3F71F04795880F97FB991FE4
:1013900061F09F3F79F087950895121613061406A1
:1013A000551FF2CF4695F1DF08C01616170618062E
:1013B000991FF1CF86957105610508940895E89409
:1013C000BB2766277727CB0197F908950E947109FB
:1013D00008F48FEF08950E94FE090C94AC090E9456
:1013E0009E0938F00E94A50920F0952311F00C9475
:1013F00095090C949B0911240C94E0090E94BD09E5
:1014000070F3959FC1F3950F50E0551F629FF00157
:10141000729FBB27F00DB11D639FAA27F00DB11D70
:10142000AA1F649F6627B00DA11D661F829F2227F9
:10143000B00DA11D621F739FB00DA11D621F839F80
:10144000A00D611D221F749F3327A00D611D231F56
:10145000849F600D211D822F762F6A2F11249F57A4
:1014600050409AF0F1F088234AF0EE0FFF1FBB1FA7
:10147000661F771F881F91505040A9F79E3F510566
:1014800080F00C9495090C94E0095F3FE4F3983EDA
:10149000D4F3869577956795B795F795E7959F5F10
:1014A000C1F7FE2B880F911D9695879597F90895A2
:1014B0000E947109880B990B0895A1E21A2EAA1BAC
:1014C000BB1BFD010DC0AA1FBB1FEE1FFF1FA217F4
:1014D000B307E407F50720F0A21BB30BE40BF50BF1
:1014E000661F771F881F991F1A9469F7609570957A
:1014F000809590959B01AC01BD01CF010895EE0F41
:0E150000FF1F0590F491E02D0994F894FFCFA1
:10150E00000000004601A600D30093010401E20092
:10151E00F60000000000B403A600120211026E6174
:10152E006E00696E66006F7666004261743120202F
:10153E0042617432202042617433004F4B004C42A2
:10154E000020202020200043757272203D200020B4
:0C155E006D410054656D70203D200000C0
:00000001FF
