:030000000208AC47
:0C08AC00787FE4F6D8FD75810702080093
:10084800D292D293D2B2D2B3D290C291D294C2955C
:09085800D2B0C2B1D2B4C2B52283
:10086100D292D293D2B2D2B3D290C291D294C29543
:09087100C2B0C2B1C2B4C2B5228A
:10087A00D2B2D2B3D292D293D2B0C2B1D2B4C2B5AA
:09088A00C290C291C294C29522F1
:10089300D292D293D2B2D2B3C290C291C294C29531
:0908A300C2B0C2B1C2B4C2B52258
:10080000E4F5B075A003A2A0E433FFA2A1E433FE97
:10081000EFFD7C006401700AEE6401700512084867
:1008200080E4ED64014C7008EE700512086180D61A
:10083000EF700AEE6401700512087A80C9EF70C685
:08084000EE70C312089380BEA4
:00000001FF
