:100000000C94E0000C9408010C9408010C94010C71
:100010000C94010C0C94010C0C9408010C94080134
:100020000C9408010C9408010C9408010C9408012C
:100030000C9408010C9408010C9408010C9408011C
:100040000C94B70B0C9408010C94850B0C945F0B6B
:100050000C9408010C9408010C9408010C940801FC
:100060000C94790C0C94080100407A10F35A00A00B
:10007000724E18090010A5D4E80000E87648170071
:1000800000E40B54020000CA9A3B000000E1F505B1
:10009000000080969800000040420F000000A086FB
:1000A00001000000102700000000E803000000002D
:1000B0006400000000000A000000000001000000D1
:1000C00000002C76D888DC674F0823DFC1DFAE59EB
:1000D000E1B1B796E5E3E453C63AE651997696E87E
:1000E000E6C28426EB898C9B62ED407C6FFCEFBC02
:1000F0009C9F40F2BAA56FA5F490055A2AF75C932D
:100100006B6CF9676DC11BFCE0E40D47FEF520E662
:10011000B500D0ED902E0300943577050080841E45
:10012000080000204E0A000000C80C333333330FA0
:10013000986E12831141EF8D2114893BE65516CF3D
:10014000FEE6DB18D1844B381BF77C1D901DA4BB49
:10015000E424203284725E228100C9F124ECA1E5FE
:100160003D2700000000240027002A0000000008AE
:10017000000201000003040700000000000000006E
:1001800000000000230026002900000000002500D8
:1001900028002B00040404040404040402020202E4
:1001A000020203030303030301020408102040803A
:1001B000010204081020010204081020980DDD132C
:1001C00011241FBECFEFD8E0DEBFCDBF11E0A0E00D
:1001D000B1E0E8E2F5E302C005900D92A439B10761
:1001E000D9F723E0A4E9B1E001C01D92AC3EB2070B
:1001F000E1F710E0CFEDD0E004C02197FE010E94AE
:100200004D19CE3DD107C9F70E94A70E0C94871A4D
:100210000C9400008F929F92AF92BF92CF92DF9288
:10022000EF92FF92CF93DF93A091C40330E081114E
:100230003A2F8091C50390E0880F991FAC01405878
:100240005E4FC090CA03D090CB03E090CC03F090F7
:10025000CD0360E070E0CB01FA01C591D491288113
:100260002A2323130FC04B015C012FEF821A920A3D
:10027000A20AB20A6C157D058E059F0570F060E03C
:1002800070E0CB01DF91CF91FF90EF90DF90CF90A6
:10029000BF90AF909F908F900895C501B401DCCFBF
:1002A00008950895AF92BF92CF92DF92EF92FF929E
:1002B0000F931F93CF93DF936C017B018B01040F8E
:1002C000151FEB015E01AE18BF08C017D10759F02A
:1002D0006991D601ED91FC910190F081E02DC6016C
:1002E0000995892B79F7C501DF91CF911F910F9166
:1002F000FF90EF90DF90CF90BF90AF900895FC01FA
:10030000538D448D252F30E0842F90E0821B930B7A
:10031000541710F0CF96089501970895FC01918D20
:10032000828D981761F0A28DAE0FBF2FB11D5D9623
:100330008C91928D9F5F9F73928F90E008958FEFC5
:100340009FEF0895FC01918D828D981731F0828D79
:10035000E80FF11D858D90E008958FEF9FEF0895D0
:10036000FC01918D228D892F90E0805C9F4F821B34
:1003700091098F73992708958DED92E00E94B00145
:1003800021E0892B09F420E0822F089580E090E09D
:10039000892B29F00E94BC0181110C940000089562
:1003A000FC01A48DA80FB92FB11DA35ABF4F2C91EA
:1003B000848D90E001968F739927848FA689B789E1
:1003C0002C93A089B1898C91837080648C93938DD8
:1003D000848D981306C00288F389E02D80818F7D7B
:1003E00080830895EF92FF920F931F93CF93DF9333
:1003F000EC0181E0888F9B8D8C8D98131AC0E88961
:10040000F989808185FF15C09FB7F894EE89FF892F
:100410006083E889F98980818370806480839FBFCD
:1004200081E090E0DF91CF911F910F91FF90EF90CD
:100430000895F62E0B8D10E00F5F1F4F0F731127DD
:10044000E02E8C8D8E110CC00FB607FCFACFE88918
:10045000F989808185FFF5CFCE010E94D001F1CFCF
:10046000EB8DEC0FFD2FF11DE35AFF4FF0829FB78C
:10047000F8940B8FEA89FB8980818062CFCFCF937C
:10048000DF93EC01888D8823B9F0AA89BB89E889BC
:10049000F9898C9185FD03C0808186FD0DC00FB662
:1004A00007FCF7CF8C9185FFF2CF808185FFEDCFE0
:1004B000CE010E94D001E9CFDF91CF910895833022
:1004C00081F028F4813099F08230A9F008958730C6
:1004D000A9F08830C9F08430B1F4809180008F7D1C
:1004E00003C0809180008F7780938000089584B549
:1004F0008F7784BD089584B58F7DFBCF8091B00048
:100500008F778093B00008958091B0008F7DF9CFF0
:100510001F93CF93DF93282F30E0F901E459FE4F6A
:100520008491F901E855FE4FD491F901EC56FE4F44
:10053000C491CC23A9F0162F81110E945F02EC2FE9
:10054000F0E0EE0FFF1FE657FE4FA591B4918FB775
:10055000F894EC91111108C0D095DE23DC938FBF85
:10056000DF91CF911F910895DE2BF8CFCF93DF93CA
:1005700090E0FC01E855FE4F24918C569E4FFC0103
:1005800084918823C9F090E0880F991FFC01EE59EF
:10059000FE4FA591B491FC01E657FE4FC591D49151
:1005A00061110DC09FB7F8948C91209582238C9394
:1005B0008881282328839FBFDF91CF9108956230DF
:1005C00051F49FB7F8943C91822F809583238C93AC
:1005D000E8812E2BEFCF8FB7F894EC912E2B2C9334
:1005E0008FBFEACF3FB7F8948091190290911A0219
:1005F000A0911B02B0911C0226B5A89B05C02F3FFD
:1006000019F00196A11DB11D3FBFBA2FA92F982F38
:100610008827BC01CD01620F711D811D911D42E033
:10062000660F771F881F991F4A95D1F708958F92FB
:100630009F92AF92BF92CF92DF92EF92FF924B01C7
:100640005C010E94F2026B017C010E94F2026C19B3
:100650007D098E099F09683E734081059105A8F3C5
:1006600021E0821A9108A108B10888EEC80E83E043
:10067000D81EE11CF11C81149104A104B10429F7D6
:10068000FF90EF90DF90CF90BF90AF909F908F90B2
:100690000895CF92DF92EF92FF920F931F93CF9323
:1006A000DF93CDB7DEB7C054D1400FB6F894DEBFAC
:1006B0000FBECDBF2FB7F89480916702909168026A
:1006C000A0916902B0916A022FBF4091C603509178
:1006D000C7036091C8037091C9038C019D01041B7D
:1006E000150B260B370BB901A801403D574061059A
:1006F000710590F48091CE03C05CDE4F0FB6F89484
:10070000DEBF0FBECDBFDF91CF911F910F91FF9044
:10071000EF90DF90CF9008958093C6039093C70326
:10072000A093C803B093C9031092C1031092C003F1
:100730001092BF031092BE031092BD0361E080913E
:10074000C2030E9488026AEF70E080E090E00E949D
:10075000170361E08091C2030E94B60260E08091BD
:10076000C2030E94880264E170E080E090E00E9491
:100770001703F89461E08091C2030E9488028BE91C
:1007800090E00197F1F762E08091C2030E94B60207
:1007900083E290E00197F1F780E00E940A01672B65
:1007A000682B692B29F41092CE03789480E0A4CFB3
:1007B00081E00E940A01672B682B692BA1F38E014F
:1007C0000F5F1F4F6E012FEBC21A2EEFD20A780176
:1007D00080E00E940A01F701608371838283938322
:1007E00081E00E940A01F701648375838683978301
:1007F000F8E0EF0EF11CEC14FD0451F7789430E0B2
:1008000020E0F801C080D180E280F38044815581EE
:1008100066817781C114D104E104F10429F0411506
:1008200051056105710519F41092CE03BFCFF9018E
:1008300083E0F595E7958A95E1F7E354FC4F8081D5
:10084000880FC416D506E606F70610F180832F5FE1
:100850003F4F085F1F4F2832310599F64091C10381
:100860002091BD038091BE03280F3327331F809151
:10087000BF03280F311D8091C003820F932F911D5C
:1008800099274817190681F681E08093CE0334CF6B
:100890008160DCCF20911F02309120022817390798
:1008A00071F490911D0280911E02981741F0E09121
:1008B0001D02F0E0E852FE4F808190E008958FEF36
:1008C0009FEF08950895EF92FF920F931F93CF9398
:1008D000DF93DC015C96ED90FC905D97E114F104F0
:1008E00079F481E090E013969C938E93129790E0B8
:1008F00080E0DF91CF911F910F91FF90EF900895CD
:100900005196ED91FC91529750968C915097982F5B
:1009100090950FB75E962C915E97122F127021FD65
:100920006095F8942081112319F1282B2083E70189
:100930002197F1F728E0462F50E0308160FF1AC080
:10094000382B3083E7012197F1F7BA017595679548
:10095000215089F7112381F08081892380830FBF83
:100960005C968D919C910197F1F781E090E0C1CF69
:100970002923DCCF3923E5CF9081892BEFCF20913C
:100980001F02309120022817390771F480911E024E
:1009900020911D0290E0805C9F4F821B910960E4D2
:1009A00070E00E94D118089590E080E008952091B1
:1009B0001F023091200228173907B9F490911D02C7
:1009C00080911E02981789F0E0911D02F0E0E85234
:1009D000FE4F808120911D0230E02F5F3F4F2F732B
:1009E000332720931D0290E008958FEF9FEF089525
:1009F0002091B501260F3327331F21323105ECF446
:100A00002091B302FC0190E080E0243069F082E0A4
:100A10000895A091B5012191AC014B565E4FA40FF2
:100A2000B52FB11D2C930196861798F38091B501CF
:100A3000680F6093B50180E0089581E008951092F9
:100A4000B30281E08093B20210928D0261E082E1F4
:100A50000E94880261E083E10E948802E9EBF0E0F5
:100A600080818E7F808380818D7F808388E48093E6
:100A7000B80085E48093BC000895CF93DF9391E0A4
:100A8000909394018823B9F0C091B800D091BA0036
:100A90008091BC008A7B8093BC0060E082E10E9470
:100AA000880260E083E10E9488020E941F05D093C3
:100AB000BA00C093B800DF91CF9108958F929F92B2
:100AC000AF92BF92CF92DF92EF92FF920F931F935C
:100AD000CF93DF93D091DC02D13208F0D7C0182F2A
:100AE000C091DB020E94F2026B017C018091B30293
:100AF00081116BC082E08093B3021093B2028FEF3A
:100B00008093B1021092B002D093AF02ABEBB2E08F
:100B1000EFE8F2E080E0D81391C010928E0280914D
:100B20008E02CC0FC82BC0938E0280918D02813033
:100B300009F088C010928D020E94F2026B017C01C4
:100B400080918E028093BB008091B5029091B60295
:100B5000A091B702B091B802892B8A2B8B2BA1F000
:100B60000E94F2020091B5021091B6022091B702E4
:100B70003091B8026C197D098E099F090617170775
:100B80002807390708F442C08091BC0083FDD8CF04
:100B900085EC8093BC000E94F2026B017C01809185
:100BA000B302823009F450C08091B1028F3F09F442
:100BB0006FC08091B102803209F46CC08091B102A3
:100BC000803309F469C084E026C08091B502909119
:100BD000B602A091B702B091B802892B8A2B8B2B59
:100BE00009F484CF0E94F2028090B5029090B60280
:100BF000A090B702B090B8026C197D098E099F09C8
:100C000086169706A806B90608F070CF8091B40240
:100C10000E943D0585E01092BA021092DC0210920B
:100C2000B902DF91CF911F910F91FF90EF90DF906C
:100C3000CF90BF90AF909F908F9008959D9191938A
:100C40008F5F69CF85EEA5CF8091B5029091B602F6
:100C5000A091B702B091B802892B8A2B8B2B09F493
:100C60009ECF0E94F2020091B5021091B60220912F
:100C7000B7023091B8026C197D098E099F090617D9
:100C800017072807390708F08ACFC0CF81E0C3CF04
:100C900080E0C1CF82E0BFCF83E0BDCFDC01119601
:100CA0008D919C91DC01ED91FC910280F381E02D0E
:100CB00041E050E00995019729F481E00E945E052A
:100CC00091E0811190E0892F08950F931F93CF93A6
:100CD000DF93E1E0F0E02115310511F0E2E0F0E012
:100CE000EC01AC81BD81AE17BF0738F1DA018B0191
:100CF00089819A81488151E05093B9024093DB0287
:100D00001092BA021092DC02232B41F4B801CE01FA
:100D1000DF91CF911F910F910C944E061097B1F374
:100D2000FC0120813181F9012281338141E050E0D1
:100D3000BD01F9010995019749F380E0DF91CF9159
:100D40001F910F910895E0916C0280916B02E8175A
:100D500030F4F0E0E359FD4F808190E008958FEF8B
:100D60009FEF089590916C0280916B022FEF3FEFFF
:100D7000981748F4E92FF0E0E359FD4F208130E067
:100D80009F5F90936C02C901089580916B029091CE
:100D90006C02891B990B0895CF92DF92EF92FF921C
:100DA0000F931F93CF93DF937C01CB018A01209196
:100DB000B902222389F0EB016B01C40ED51ECC15BC
:100DC000DD0569F06991D701ED91FC910190F08109
:100DD000E02DC7010995F3CF642F0E94F804C801E4
:100DE000DF91CF911F910F91FF90EF90DF90CF9007
:100DF0000895CF93DF931F92CDB7DEB7698320911B
:100E0000B9022223F9F02091DC02203258F021E0CF
:100E100030E0FC013383228390E080E00F90DF918B
:100E2000CF9108958091BA02E82FF0E0E554FD4F8C
:100E3000998190838F5F8093BA028093DC0281E076
:100E400090E0ECCF61E0CE0101960E94F804F7CF6C
:100E5000CF93DF93EC018B818823A1F0888191E00F
:100E60009093B9028093DB021092BA021092DC02D6
:100E700081E00E945E0591E0811190E0892FDF9171
:100E8000CF91089510926C0210926B021092BA02E8
:100E90001092DC020E941F0580E591E090932202EF
:100EA0008093210281E591E09093240280932302B4
:100EB00081E08B83CE010E942807982F8111CECF2D
:100EC000DDCF089590E080E008954F925F926F9299
:100ED0007F92BF92CF92DF92EF92FF920F931F9378
:100EE000CF93DF93DC011496ED91FC911597EF2BD6
:100EF00009F404C1E901C52EB42E8C01FC018081E6
:100F000091E09093B9028093DB021092BA021092A2
:100F1000DC02CD010E944E06D82E882309F4EEC0D3
:100F2000D80114968D919C9115978C179D0708F404
:100F3000E5C0EC900E94F2022B013C018091B302CB
:100F4000811167C0FC2E81E08093B3028093B202CE
:100F50009FEF9093B1021092B0029C2F915090930A
:100F6000AF0280938E0280918E02EE0CE82AE0920E
:100F70008E0280918D02813009F09CC010928D020A
:100F80000E94F2022B013C0180918E028093BB00F3
:100F90008091B5029091B602A091B702B091B802CB
:100FA000892B8A2B8B2BA1F00E94F2022091B50293
:100FB0003091B6024091B7025091B8026419750998
:100FC00086099709261737074807590708F442C0CA
:100FD0008091BC0083FDD8CF85EC8093BC000E943B
:100FE000F2022B013C018091B302813009F464C00C
:100FF0008091B0028F1510F4F090B002AFE8B2E02B
:10100000EDE6F2E080E08F1551F19D9191938F5FB5
:10101000FACF8091B5029091B602A091B702B0913B
:10102000B802892B8A2B8B2B09F488CF0E94F202FD
:101030002091B5023091B6024091B7025091B802AA
:10104000641975098609970926173707480759074C
:1010500008F074CF8091B4020E943D05F12C1092EB
:101060006C02F0926B02FC161D0609F047C0EB2CD7
:10107000FC2CCE0DDF1DF80181819281DC01ED9108
:10108000FC910284F385E02D0995F70181937F019E
:10109000CE17DF0781F78D2DDF91CF911F910F9133
:1010A000FF90EF90DF90CF90BF907F906F905F9018
:1010B0004F90089585EE91CF8091B5029091B60240
:1010C000A091B702B091B802892B8A2B8B2B09F41F
:1010D0008ACF0E94F2022091B5023091B60240916F
:1010E000B7025091B8026419750986099709261745
:1010F00037074807590708F076CFACCFD12CCBCFB4
:10110000CF93DF9300D01F92CDB7DEB78B8322E061
:1011100030E0AE014F5F5F4FBE016D5F7F4F80914A
:10112000CF039091D0030E94650789819A81982707
:10113000892798270F900F900F90DF91CF910895F6
:10114000CF93DF93EC0160E08E810E94880261E022
:101150008E810E94880260E08E810E9488028BE866
:1011600091E00197F1F7DF91CF910895CF92DF924F
:10117000EF92FF920F931F93CF93DF936C017C014B
:1011800087E0E80EF11CD0E0C0E0062F10E0B801C7
:101190000C2E02C0759567950A94E2F76170F7010D
:1011A00081917F010E9488022196C430D10579F790
:1011B000C601DF91CF911F910F91FF90EF90DF90CB
:1011C000CF900C94A008CF92DF92EF92FF920F93F2
:1011D0001F93CF93DF93EC01F62E642F8C810E9436
:1011E00088028D818F3F19F060E00E9488020F2DE8
:1011F00010E08F8584FF25C06E0187E0C80ED11CEA
:10120000F12CE12CB8010E2C02C0759567950A945B
:10121000E2F76170F60181916F010E948802FFEF91
:10122000EF1AFF0A88E0E816F10461F7CE01DF91BA
:10123000CF911F910F91FF90EF90DF90CF900C9482
:10124000A008B80184E0759567958A95E1F7CE010D
:101250000E94B6086F2DCE01DF91CF911F910F91A3
:10126000FF90EF90DF90CF900C94B60840E0682F8D
:1012700085EA93E00C94E308CF93DF93813029F063
:101280009091B40398609093B4038093B803109244
:10129000B90380E48093BA0380E18093BB0380E5C7
:1012A0008093BC0361E08091A9030E94B602809103
:1012B000AA038F3F19F061E00E94B60261E08091BD
:1012C000AB030E94B602C5EAD3E09E01255A334023
:1012D0008091B40384FD0BC084E090E02196281730
:1012E000390744F461E08E810E94B602EECF88E0B7
:1012F00090E0F4CF8BE39DE00197F1F760E08091FF
:10130000A9030E94880260E08091AB030E948802DA
:101310008091AA038F3F19F060E00E9488028091BB
:10132000B40384FD39C063E085EA93E00E94B60807
:10133000CBE4D6E4CE010197F1F763E085EA93E0D0
:101340000E94B6082197F1F763E085EA93E00E94D6
:10135000B60883E592E00197F1F762E085EA93E051
:101360000E94B6088091B40380620E94360984E02E
:101370008093B5038CE00E94360981E00E94360913
:101380008BE39FE10197F1F782E08093B60386E05B
:10139000DF91CF910C94360980620E9436098BE46C
:1013A00096E40197F1F78091B40380620E943609B8
:1013B00083E592E00197F1F78091B40380620E9487
:1013C0003609D0CF9091B803891710F08FEF890FAD
:1013D000E82FF0E0EB55FC4F848980680C943609C7
:1013E00041E00E94E30881E090E00895FB01019054
:1013F0000020E9F73197AF01461B570BDC01ED9157
:10140000FC910280F381E02D09948F929F92AF921C
:10141000BF920F931F93CF93DF93CDB7DEB7A19702
:101420000FB6F894DEBF0FBECDBF19A2423008F44C
:101430004AE08E010F5D1F4F842E912CB12CA12C00
:10144000A50194010E94E518E62FB901CA01EA300E
:1014500004F5E05DD801EE938D01232B242B252B81
:1014600079F790E080E0109729F0BD0186E893E0DD
:101470000E94F609A1960FB6F894DEBF0FBECDBF4D
:10148000DF91CF911F910F91BF90AF909F908F9060
:101490000895E95CDFCF4F925F926F927F928F92B7
:1014A0009F92AF92BF92CF92DF92EF92FF920F93F3
:1014B0001F93CF936B017C01742EAC019B010E94A2
:1014C000BC1868E471E0811126C046015701E89418
:1014D000B7F82FEF3FEF4FE75FE7C501B4010E9478
:1014E000BC1881110CC02FEF3FEF4FE75FE7C5013C
:1014F000B4010E94F2166CE471E0181664F02FEF4C
:101500003FEF4FE75FE4C701B6010E944A18181683
:10151000ACF460E571E086E893E0CF911F910F9104
:10152000FF90EF90DF90CF90BF90AF909F908F9003
:101530007F906F905F904F900C94F6092FEF3FEFE4
:101540004FE75FECC701B6010E94F21687FDE1CFBD
:1015500020E030E0A901C701B6010E94F21610E0B8
:1015600000E087FF0AC06DE286E893E00E94630412
:101570008C01F7FAF094F7F8F094C0E060E070E0C6
:1015800080E09FE37C1641F020E030E040E251E44F
:101590000E94F716CF5FF6CFA70196010E9486162C
:1015A0002B013C010E9469174B015C014AE00E943B
:1015B000050A7C01E00EF11ECC23C1F1C501B40186
:1015C0000E9498179B01AC01C301B2010E948516CD
:1015D0004B015C016EE286E893E00E946304E80E32
:1015E000F91EC15018F120E030E040E251E4C5019D
:1015F000B4010E944F182B013C010E9469174B0156
:10160000B12CA12C4AE0C501B4010E94050AE80EE4
:10161000F91EC501B4010E9498179B01AC01C301DA
:10162000B2010E9485164B015C01DBCFC701CF914F
:101630001F910F91FF90EF90DF90CF90BF90AF90F0
:101640009F908F907F906F905F904F90089585ED61
:101650008093BC008091B5029091B602A091B70230
:10166000B091B8020796A11DB11D23E0B695A795CC
:10167000979587952A95D1F72091BC0024FD03C04A
:101680001092B30208954091B5025091B602609154
:10169000B7027091B802452B462B472B69F3009790
:1016A000A105B10541F025E32A95F1F70000019766
:1016B000A109B109E1CF8091B4020C943D051F92BC
:1016C0000F920FB60F9211242F933F934F935F9376
:1016D0006F937F938F939F93AF93BF93EF93FF93FA
:1016E0008DED92E00E94D001FF91EF91BF91AF91FB
:1016F0009F918F917F916F915F914F913F912F912A
:101700000F900FBE0F901F9018951F920F920FB65B
:101710000F9211242F938F939F93EF93FF93E09158
:10172000ED02F091EE028081E091F302F091F4027B
:1017300082FD1BC090818091F6028F5F8F73209194
:10174000F702821741F0E091F602F0E0E352FD4F1C
:10175000958F8093F602FF91EF919F918F912F913A
:101760000F900FBE0F901F9018958081F4CF1F929D
:101770000F920FB60F9211242F933F938F939F9345
:10178000AF93BF938091670290916802A091690224
:10179000B0916A023091180223E0230F2D3758F5DB
:1017A0000196A11DB11D20931802809367029093AA
:1017B0006802A0936902B0936A0280911902909125
:1017C0001A02A0911B02B0911C020196A11DB11D2D
:1017D0008093190290931A02A0931B02B0931C02EB
:1017E000BF91AF919F918F913F912F910F900FBE1D
:1017F0000F901F90189526E8230F0296A11DB11D8A
:10180000D2CF1F920F920FB60F9211242F933F93B6
:101810004F935F936F937F938F939F93AF93BF93F8
:10182000EF93FF93E0911F02F0912002309749F06F
:10183000A685B7858585968D91FF14C09C918923D7
:10184000A1F4FF91EF91BF91AF919F918F917F9103
:101850006F915F914F913F912F910F900FBE0F901D
:101860001F9018959C91892361F7A389B4899C9155
:101870008589809589238C93868997890197F1F7CB
:10188000608D718DA685B785558538E020E0CB0148
:101890000197F1F7822F90E095958795282F4C912D
:1018A000452309F02068315091F7868D81FD209500
:1018B00080911E0290E001968F73992730911D024E
:1018C000381799F0A0911E02B0E0A852BE4F2C9399
:1018D00080931E02828D938D0197F1F7A389B489BD
:1018E0008C919589892B8C93ACCF868D8160868F66
:1018F000F1CF1F920F920FB60F9211242F933F93A7
:101900004F935F936F937F938F939F93AF93BF9307
:10191000EF93FF938091B900887F803609F44AC025
:10192000F0F5883209F4A7C018F5803109F49BC09E
:10193000B8F4882309F4F9C0883009F494C0FF9101
:10194000EF91BF91AF919F918F917F916F915F9137
:101950004F913F912F910F900FBE0F901F901895B0
:10196000883109F488C0803251F78093B10214C0E5
:10197000803409F49DC040F48033B9F38833F9F61C
:101980008093B10285ECB0C0803509F485C08835FC
:1019900009F496C0883499F60E94270BD0CF883975
:1019A00009F48CC038F5883729F050F4883611F0E6
:1019B000803729F683E08093B3021092D70157C095
:1019C000883809F47BC0803919F0803809F0B7CF26
:1019D0008091D701803208F071C0E091D70181E099
:1019E0008E0F8093D7018091BB00F0E0E954FE4F49
:1019F00080833DC0803B39F0E0F4803A09F479C03F
:101A0000883A09F09CCF84E08093B3021092B6012B
:101A10001092B501E0912102F09122020995809186
:101A2000B50181110FC081E08093B501109295013D
:101A300009C0803C09F4A6CF883C09F4A3CF883BB9
:101A400009F07DCFE091B60181E08E0F8093B60161
:101A5000F0E0EB56FE4F80818093BB009091B60181
:101A60008091B50129C080918E028093BB0085ECE6
:101A70008093BC0064CF9091B0028091AF02981720
:101A800058F5E091B00281E08E0F8093B002F0E053
:101A9000E157FD4F8081E9CFE091B00281E08E0FE8
:101AA0008093B0028091BB00F0E0E157FD4F80834E
:101AB0009091B0028091AF029817C8F285E8D8CF14
:101AC000E091B00281E08E0F8093B0028091BB0064
:101AD000F0E0E157FD4F80838091B20281115CCF2D
:101AE00081E080938D0284EA8093BC001092B3025F
:101AF00026CF85EC8093BC001092B3028091D70171
:101B0000803230F4E091D701F0E0E954FE4F1082CA
:101B10006091D70170E0E0912302F091240287EBFD
:101B200091E009951092D7010ACF1092B10234CFFB
:101B3000CF92DF92EF92FF921092E0021092DF02BA
:101B400098EEC92E93E0D92EE12CF12CC092E1023F
:101B5000D092E202E092E302F092E4028AE091E0A5
:101B60009093DE028093DD0285EC90E09093EA0290
:101B70008093E90284EC90E09093EC028093EB0276
:101B800080EC90E09093EE028093ED0281EC90E087
:101B90009093F0028093EF0282EC90E09093F20237
:101BA0008093F10286EC90E09093F4028093F3022C
:101BB0001092F6021092F7021092F8021092F902B7
:101BC00010927D0310927C03C0927E03D0927F031B
:101BD000E0928003F09281038CE191E090937B038B
:101BE00080937A0388E08093C2038BE08093C303E1
:101BF000E0EBF1E0E491E093C403ECE9F1E0E4917F
:101C0000E093C50380E89EE3A0E0B0E08093CA03C0
:101C10009093CB03A093CC03B093CD031092A80371
:101C20001092A70380E491E09093A6038093A5030C
:101C30008DE08093A9038FEF8093AA038CE08093BB
:101C4000AB0385E08093AC0384E08093AD0383E035
:101C50008093AE0382E08093AF031092B0031092A2
:101C6000B1031092B2031092B3031092B40381E057
:101C70000E943C091092890310928803C0928A0343
:101C8000D0928B03E0928C03F0928D038EE291E070
:101C9000909387038093860310929D0310929C0378
:101CA00010929F0310929E031092A1031092A00322
:101CB0001092A3031092A2036091A4036E7F6D7F24
:101CC0006093A4036695617081E068278BE00E94B1
:101CD000880261E08BE00E94B602E3EBF1E0E49160
:101CE000E0939603EFE9F1E0E491F0E0EE0FFF1FDF
:101CF000E657FE4F859194919093980380939703B4
:101D000060E08AE00E94B6028091A40381FD04C0D5
:101D100061E08AE00E9488028AE080939203E2EB0D
:101D2000F1E0E491E0939303EEE9F1E0E491F0E077
:101D3000EE0FFF1FE058FE4F85919491909395030D
:101D400080939403FF90EF90DF90CF900895CF930E
:101D5000DF93CDB7DEB763970FB6F894DEBF0FBE43
:101D6000CDBF789484B5826084BD84B5816084BD24
:101D700085B5826085BD85B5816085BD80916E0029
:101D8000816080936E00109281008091810082605A
:101D90008093810080918100816080938100809197
:101DA00080008160809380008091B1008460809386
:101DB000B1008091B00081608093B00080917A0082
:101DC000846080937A0080917A00826080937A00A8
:101DD00080917A00816080937A0080917A00806897
:101DE00080937A001092C100E091ED02F091EE0232
:101DF00082E08083E091E902F091EA021082E091B2
:101E0000EB02F091EC028FEC80831092F502E091EE
:101E1000F102F091F20286E08083E091EF02F0910E
:101E2000F002808180618083E091EF02F091F00206
:101E3000808188608083E091EF02F091F0028081E0
:101E400080688083E091EF02F091F00280818F7DC5
:101E500080831092A1031092A00310929F0310920E
:101E60009E0310929D0310929C038FE190E090934B
:101E7000A3038093A20390919203963108F047C088
:101E800021E030E030939D0320939C032DE130E06E
:101E900030939F0320939E032DE030E03093A10305
:101EA0002093A0032091680084E0983048F031E04E
:101EB0009E3008F430E081E001C0880F3A95EAF7DF
:101EC000822B809368002DE630E0983050F02BE6AE
:101ED00030E09E3030F02CE630E0963110F030E00B
:101EE00020E030939A0320939903292F30E0983013
:101EF00008F011C181E001C0880F9A95EAF780933C
:101F00009B038091A2039091A3030197F1F7809125
:101F1000A0039091A103892B49F1E0911F02F09158
:101F2000200223E0E638F20709F1309739F0A3895F
:101F3000B4899C918589809589238C938091A40391
:101F40008E7F8093A40310921E0210921D0286E8D9
:101F500093E09093200280931F02E0919903F09107
:101F60009A03808190919B03892B808384E00E9457
:101F70003C0962E08091C2030E94B60280E398EFC0
:101F8000AFEFBFEF8093C6039093C703A093C8033E
:101F9000B093C90383E08093D1038091CF039091E4
:101FA000D003009711F00E94FE1986E090E00E9495
:101FB00062197C0187E7D7018C938AE793E0129638
:101FC0009C938E93119713961C92139780E290E046
:101FD00015969C938E931497F092D003E092CF03C2
:101FE00010926C0210926B021092BA021092DC02F4
:101FF0000E941F0580E591E09093220280932102C8
:1020000081E591E0909324028093230281E0F7011F
:102010008383C7010E942807882309F489C080EDC3
:102020008F8321E030E08E010F5F1F4FA801BE01BA
:10203000695F7F4F8091CF039091D0030E94650725
:102040008981853509F074C08AEA0E9480089093DE
:10205000D3038093D2038CEA0E9480089093D50327
:102060008093D4038EEA0E9480089093D7038093D4
:10207000D60380EB0E9480089093E3038093E203F1
:1020800082EB0E9480089093E5038093E40384EB45
:102090000E9480089093E7038093E60386EB0E94FA
:1020A00080089093D9038093D80388EB0E9480081E
:1020B0009093DB038093DA038AEB0E94800890936D
:1020C000DD038093DC038CEB0E9480089093DF0398
:1020D0008093DE038EEB0E9480089093E10380934F
:1020E000E003180168E97AE380E090E00E941703BA
:1020F0000E944903882341F08091C3038B30F9F09B
:1021000018F085518230D8F1412C512CB0EC6B2E57
:10211000BFE77B2E1DC09E3040F42850310981E07E
:1021200001C0880F2A95EAF7EACE2E503109F7CF81
:1021300064E571E085EA93E00E94F609FFCF6091C3
:10214000BF0370E090E080E00E9498172B013C01F3
:102150000E944903882309F406C38091C3038B308E
:10216000C9F120F08551823008F4DCC280E090E0B3
:10217000A0ECBFE788879987AA87BB8736C01091F4
:10218000BF03612F6F7770E090E080E00E949A17A4
:1021900020E030E040E853E40E944F186B017C01DE
:1021A0006091C00370E090E080E00E949A17A70160
:1021B00096010E9486162DEC3CEC4CEC5DE30E94EF
:1021C0004F182B013C0117FFC3CF77FA709477F8B3
:1021D0007094BECF6091BD0370E090E080E00E94FB
:1021E0009817688779878A879B878EE28E8314EF9A
:1021F0001D8321E030E0AE014B5F5F4FBE016A5F9F
:102200007F4F8091CF039091D0030E94650665E0D7
:1022100070E080E090E00E94170386EF0E94800843
:102220004C01B12CA12C8091D1038295880F880F8D
:10223000807C8C5C8C831B8321E030E0AE014D5FA1
:102240005F4FBE016C5F7F4F8091CF039091D003B1
:102250000E9465068091D10381118EC265E070E015
:1022600080E090E00E94170386EF0E948008B0E0B3
:10227000A0E0CC24D82EE92EFA2E88EF8A8321E024
:1022800030E0A101BE016E5F7F4F8091CF0390913E
:10229000D0030E9465078981A7019601282B288B0E
:1022A000398B4A8B5B8B1091D1038091E60390911F
:1022B000E703A5019401281B390B41095109A0919D
:1022C000E403B091E5030E9426194B015C01AFE0E5
:1022D000B594A79497948794AA95D1F76091DE035B
:1022E0007091DF03072E000C880B990BBBE0660F83
:1022F000771F881F991FBA95D1F72091E00330917D
:10230000E103032E000C440B550B280D391D4A1D0B
:102310005B1D0E940719820E931EA41EB51E30EA93
:10232000831A3FE0930AA108B108A5019401C501F1
:10233000B4010E94C1189B01AC010CE05595479572
:10234000379527950A95D1F72C873D874E875F876C
:10235000A091D603B091D703A50194010E94311931
:102360006B017C018DE0F594E794D794C7948A952E
:10237000D1F7A091D803B091D9032C853D854E8526
:102380005F850E9431199C01552737FD5095452FD7
:102390002C0D3D1D4E1D5F1D2E5F3F4F4F4F5F4F5C
:1023A00062E055954795379527956A95D1F730584E
:1023B0004F4F5F4FA091E203B091E3030E942619B3
:1023C0006B017C017FE0F694E794D794C7947A95EB
:1023D000D1F788E090E0811B9109288939894A89E1
:1023E0005B8904C056954795379527958A95D2F70E
:1023F000288B398B4A8B5B8BA091DA03B091DB037E
:102400002C853D854E855F850E9431199B01AC016D
:10241000EBE05595479537952795EA95D1F72C87A9
:102420003D874E875F87A091D403B091D503A50166
:1024300094010E943119FBE09595879577956795F2
:10244000FA95D1F72C853D854E855F85620F731F08
:10245000841F951F8090D2039090D303092C000C09
:10246000AA08BB08A2E0880C991CAA1CBB1CAA9550
:10247000D1F7680D791D8A1D9B1D012E04C0660FC2
:10248000771F881F991F0A94D2F76E5F7F4F8F4F77
:102490009F4F24E030E040E050E00E940719888917
:1024A0009989AA89BB89821B930BA40BB50B9C014C
:1024B000AD0160E573EC80E090E004C096958795EF
:1024C000779567951A95D2F70E94C11897FD67C155
:1024D000660F771F881F991FA70196010E94E518B4
:1024E00069017A019927F7FC9A958F2D7E2D6D2D24
:1024F0009B01AC010E94C1189B01AC01AEEDBBE099
:102500000E9426194B015C01A3E4B3EEA7019601DA
:102510000E943419BC01992777FD9095892F4501B8
:10252000BB2497FCB094AB2C680D791D8A1D9B1DB4
:102530006153714F8F4F9F4F44E0959587957795E5
:1025400067954A95D1F76C0D7D1D8E1D9F1D0E94CC
:102550009A174B015C01E5E7F1E08491E1EBF1E0D2
:102560001491EDE9F1E0F490FF2009F423C1811109
:102570000E945F02EF2DF0E0EE0FFF1FE058FE4FCC
:10258000A591B4918C91182391E080E009F490E03A
:10259000E92EF82E07E512E021E043E0C301B20185
:1025A0000E94F91307E412E021E043E06885798591
:1025B0008A859B850E94F91307E312E020E043E03F
:1025C000C501B4010E94F913B0903702B092250200
:1025D000C0903802C0922602D0903902D0922702D1
:1025E00010913A021093280284E090E09093360212
:1025F000809335026AE286E893E00E94630440E03B
:10260000C301B2010E944B0A40E0688579858A8542
:102610009B850E944B0A8B2DBB0C990BC09728EE13
:1026200033E0829FB001839F700D929F700D112443
:102630008C2DCC0C990BC09744E6489F9001499F84
:10264000300D1124620F731F8D2DDD0C990BC09777
:102650004AE0489F9001499F300D1124620F731F7B
:10266000812F110F990BC097680F791F072E000C4F
:10267000880B990B0E949A1740E00E944B0A63E274
:1026800086E893E00E9463046AE571E086E893E0DF
:102690000E94F60980E00E94E2096DE571E085EA9A
:1026A00093E00E94F60967E572E085EA93E00E94F4
:1026B000F60981E00E94E20965E671E085EA93E0AF
:1026C0000E94F60967E472E085EA93E00E94F60949
:1026D00082E00E94E2096BE671E085EA93E00E94E5
:1026E000F60965E272E085EA93E00E94F60983E06C
:1026F0000E94E20967E771E0EA94EF2811F065E8CB
:1027000071E085EA93E00E94F60980E090E0892B71
:1027100009F4E8CC0E94BC01882309F4E3CC0E94B0
:102720000000E0CC6091BD0370E090E080E00E948A
:10273000981720E030E040E853E40E944F186B0106
:102740007C016091BE0370E090E080E00E949A17E7
:10275000A70196010E9486162DEC3CEC4CEC5DE343
:102760000E944F183ECD20E030E040EC5FE7288724
:1027700039874A875B8739CD813029F468E070E07A
:1027800080E090E06FCD823029F46EE070E080E070
:1027900090E068CD6AE170E080E090E063CDA70151
:1027A00096010E94E51869017A01CC0CDD1CEE1C33
:1027B000FF1C98CEF12CE12CEDCE8EE291E09093AF
:1027C00087038093860380911F0290912002865890
:1027D000934071F4E0919903F0919A039081809174
:1027E0009B038095892380831092200210921F0200
:1027F0000895EF920F931F93CF93DF93E80134E096
:1028000047FD34E1042E000C550B57FF03C05195D2
:1028100041955109E32E022F242FAE010E94171477
:10282000CE01DF91CF911F910F91EF900895A9E014
:10283000B0E0EDE1F4E10C9454166A01F22EB02EF2
:10284000102FFBE3AF2EA01608F41BE31F5F012F30
:1028500027E0AE014F5F5F4F0E947615BC01898172
:10286000982F9970913009F43FC09BE2E1FC04C0BD
:102870009E2D9170E0FC3AC05E2D5071E82FE870FB
:1028800083FF46C084E0911101C083E0EF2DE81B77
:102890008F1508F0E0E0D6018E2F20E2552351F18C
:1028A000992329F0D6019C93C60101966C019601EB
:1028B0002D5F3F4FE2FE24C08EE4D6018C9391E45D
:1028C00011969C93119712968C93D9018E2F90E2BA
:1028D00081111BC0E20FF32FF11D10828EEF9FEFCD
:1028E0002996ECE00C9470169DE2C6CF90E2C4CF1E
:1028F0002D9381508111FCCFCE0ED11CE0E0D0CFC2
:102900008EE6D6018C9391E6DBCF9D938150E0CF8C
:10291000482F447082FF3DC084E0911101C083E0E4
:102920008F1510F4EF2DE81BD6018E2F20E25523D2
:1029300009F1992329F0D6019C93C60101966C01F7
:1029400096012D5F3F4FE2FE1BC089E4D6018C93B8
:102950008EE411968C93119786E412968C93D9018C
:102960008E2F90E2882309F4B5CF9D938150FACF42
:102970002D9381508111FCCFCE0ED11CE0E0D9CF38
:1029800089E6D6018C938EE611968C93119786E694
:10299000E4CF9B0177FF02C030E020E0A1E0B0E08F
:1029A000911102C0B0E0A0E0F9013196AE0FBF1F57
:1029B0008B2C912CBB2009F461C05401EFEFAE1AAF
:1029C000BE0AAA0DBB1DFA161B0619F014F04F2DF6
:1029D0004A1B511188C0E3FC59C07601A42FB0E214
:1029E000A1114FC0C40ED11C992309F45BC040E073
:1029F000D6011196F60190836D01552309F448C064
:102A0000012F060F9A81582F507184FF03C0913314
:102A100009F4015010160CF047C0093008F008E026
:102A2000EEE2FE2E5B01A01AB1088501919481941B
:102A300091082F3F320729F4D601FC92F601319616
:102A40006F016217730794F1021713077CF5DB011E
:102A5000A21BB30BAA24A394B12CAC0EBD1EAA0DCD
:102A6000BB1D11968C9121503109D6011196281564
:102A70003905F4F0F60180836D01DBCFB12CA12C78
:102A8000A0CFF701B1937F01A150AACF9111B0CF90
:102A9000D601942F50E302C05D9391509111FCCF69
:102AA000C40ED11C40E0ACCF01E0BACF80E3DBCF55
:102AB0006217730731F4963388F4953311F4552374
:102AC00069F0F6018083FD01842F90E2811108C036
:102AD000A40FB11D1C9290E080E002CF81E3F1CF02
:102AE00091938150F3CF911183CF8ACF283008F092
:102AF00027E03327DA01990F311D87FD9160009699
:102B00006105710539F432602E5F3D9330E32A95FB
:102B1000E1F708959F3F30F080387105610509F0B5
:102B20003C5F3C5F3D93913008F08068911DDF93DE
:102B3000CF931F930F93FF92EF92192F987F969543
:102B4000E92F96959695E90FFF27EE53FF4F9927AA
:102B50003327EE24FF24A701E7010590089407948A
:102B600028F4360FE71EF81E491F511D660F771F08
:102B7000881F991F0694A1F70590079428F4E70E83
:102B8000F81E491F561FC11D770F881F991F661F0A
:102B90000694A1F70590079428F4F80E491F561FD4
:102BA000C71FD11D880F991F661F771F0694A1F7B5
:102BB0000590079420F4490F561FC71FD81F990F7F
:102BC000661F771F881F0694A9F7849110951770C8
:102BD00041F0D695C79557954795F794E7941A9580
:102BE000C1F7E8E6F0E0689415901591359165918C
:102BF000959105907FE27395E118F10A430B560B0E
:102C0000C90BD009C0F7E10CF11E431F561FC91FA5
:102C1000D01D7EF4703311F48A95E6CFE89401500C
:102C200030F0080F0AF40027021708F4202F23952C
:102C3000022F7A3328F079E37D932A95E9F710C0C3
:102C40007D932A9589F606949795679537951795FC
:102C50001794E118F10A430B560BC90BD00998F0F1
:102C600023957E9173957A3308F070E37C9320135B
:102C7000B8F77E9170617D9330F0839571E37D9319
:102C800070E32A95E1F71124EF90FF900F911F91C7
:102C9000CF91DF91992787FD909508952F923F92CC
:102CA0004F925F926F927F928F929F92AF92BF925C
:102CB000CF92DF92EF92FF920F931F93CF93DF9308
:102CC000CDB7DEB7CA1BDB0B0FB6F894DEBF0FBE65
:102CD000CDBF09942A88398848885F846E847D84B2
:102CE0008C849B84AA84B984C884DF80EE80FD80B4
:102CF0000C811B81AA81B981CE0FD11D0FB6F8942A
:102D0000DEBF0FBECDBFED0108955058BB27AA27E7
:102D10000E949D160C9410180E94021838F00E9410
:102D2000091820F039F49F3F19F426F40C94FF178A
:102D30000EF4E095E7FB0C94F917E92F0E94211897
:102D400058F3BA17620773078407950720F079F4E0
:102D5000A6F50C9443180EF4E0950B2EBA2FA02D77
:102D60000B01B90190010C01CA01A0011124FF2738
:102D7000591B99F0593F50F4503E68F11A16F04033
:102D8000A22F232F342F4427585FF3CF4695379532
:102D90002795A795F0405395C9F77EF41F16BA0BF7
:102DA000620B730B840BBAF09150A1F0FF0FBB1FA5
:102DB000661F771F881FC2F70EC0BA0F621F731FEE
:102DC000841F48F4879577956795B795F7959E3F4B
:102DD00008F0B0CF9395880F08F09927EE0F9795DC
:102DE000879508950E94D51708F481E008950E9400
:102DF0000B170C9410180E94091858F00E94021822
:102E000040F029F45F3F29F00C94F91751110C940C
:102E100044180C94FF170E94211868F39923B1F30A
:102E2000552391F3951B550BBB27AA2762177307F0
:102E3000840738F09F5F5F4F220F331F441FAA1F84
:102E4000A9F335D00E2E3AF0E0E832D09150504040
:102E5000E695001CCAF72BD0FE2F29D0660F771FEE
:102E6000881FBB1F261737074807AB07B0E809F0D4
:102E7000BB0B802DBF01FF2793585F4F3AF09E3F59
:102E8000510578F00C94F9170C9444185F3FE4F363
:102E9000983ED4F3869577956795B795F7959F5F9C
:102EA000C9F7880F911D9695879597F90895E1E0E8
:102EB000660F771F881FBB1F621773078407BA0747
:102EC00020F0621B730B840BBA0BEE1F88F7E095A2
:102ED00008950E94291888F09F5798F0B92F9927D4
:102EE000B751B0F0E1F0660F771F881F991F1AF0F5
:102EF000BA95C9F714C0B13091F00E944318B1E0FF
:102F000008950C944318672F782F8827B85F39F0FD
:102F1000B93FCCF3869577956795B395D9F73EF48D
:102F200090958095709561957F4F8F4F9F4F089535
:102F3000E89409C097FB3EF4909580957095619553
:102F40007F4F8F4F9F4F9923A9F0F92F96E9BB2709
:102F50009395F695879577956795B795F111F8CF85
:102F6000FAF4BB0F11F460FF1BC06F5F7F4F8F4FF0
:102F70009F4F16C0882311F096E911C0772321F0E6
:102F80009EE8872F762F05C0662371F096E8862F7E
:102F900070E060E02AF09A95660F771F881FDAF7D5
:102FA000880F9695879597F90895990F0008550F02
:102FB000AA0BE0E8FEEF16161706E807F907C0F0BF
:102FC00012161306E407F50798F0621B730B840BC7
:102FD000950B39F40A2661F0232B242B252B21F4A1
:102FE00008950A2609F4A140A6958FEF811D811D41
:102FF000089597F99F6780E870E060E008959FEF7B
:1030000080EC089500240A9416161706180609067F
:10301000089500240A94121613061406050608954E
:10302000092E0394000C11F4882352F0BB0F40F4D6
:10303000BF2B11F460FF04C06F5F7F4F8F4F9F4F16
:10304000089557FD9058440F551F59F05F3F71F098
:103050004795880F97FB991F61F09F3F79F08795FF
:103060000895121613061406551FF2CF4695F1DF88
:1030700008C0161617061806991FF1CF8695710518
:10308000610508940895E894BB2766277727CB014C
:1030900097F908950E94D51708F48FEF08950E94BC
:1030A00062180C9410180E94021838F00E94091837
:1030B00020F0952311F00C94F9170C94FF171124AC
:1030C0000C9444180E94211870F3959FC1F3950F3A
:1030D00050E0551F629FF001729FBB27F00DB11D9C
:1030E000639FAA27F00DB11DAA1F649F6627B00D2C
:1030F000A11D661F829F2227B00DA11D621F739F15
:10310000B00DA11D621F839FA00D611D221F749F22
:103110003327A00D611D231F849F600D211D822F69
:10312000762F6A2F11249F5750409AF0F1F0882390
:103130004AF0EE0FFF1FBB1F661F771F881F9150BD
:103140005040A9F79E3F510580F00C94F9170C945C
:1031500044185F3FE4F3983ED4F3869577956795DE
:10316000B795F795E7959F5FC1F7FE2B880F911DE7
:103170009695879597F908950E94D517880B990B16
:103180000895DB018F939F930E942619BF91AF9101
:10319000A29F800D911DA39F900DB29F900D1124B1
:1031A000089597FB072E16F4009407D077FD09D0F9
:1031B0000E94391907FC05D03EF4909581959F4FE8
:1031C0000895709561957F4F0895A1E21A2EAA1B6C
:1031D000BB1BFD010DC0AA1FBB1FEE1FFF1FA217C7
:1031E000B307E407F50720F0A21BB30BE40BF50BC4
:1031F000661F771F881F991F1A9469F7609570954D
:10320000809590959B01AC01BD01CF010895052EDD
:1032100097FB1EF400940E941E1957FD07D00E94D0
:10322000E51807FC03D04EF40C941E1950954095F8
:10323000309521953F4F4F4F5F4F08959095809562
:10324000709561957F4F8F4F9F4F08950E9453193E
:10325000A59F900DB49F900DA49F800D911D1124EA
:103260000895B7FF0C9426190E942619821B930B10
:103270000895AA1BBB1B51E107C0AA1FBB1FA617BD
:10328000B70710F0A61BB70B881F991F5A95A9F70F
:1032900080959095BC01CD010895EE0FFF1F05901C
:1032A000F491E02D0994A29FB001B39FC001A39FA8
:1032B000700D811D1124911DB29F700D811D11246F
:1032C000911D08950F931F93CF93DF938230910543
:1032D00010F482E090E0E091EA03F091EB0330E03B
:1032E00020E0B0E0A0E0309799F42115310509F411
:1032F0004AC0281B390B24303105D8F58A819B81BF
:103300006115710589F1FB0193838283FE0111C070
:10331000408151810281138148175907E0F0481715
:10332000590799F4109761F012960C93129713961F
:103330001C933296CF01DF91CF911F910F91089589
:103340000093EA031093EB03F4CF2115310551F0FC
:103350004217530738F0A901DB019A01BD01DF01D3
:10336000F801C1CFEF01F9CF9093EB038093EA030B
:10337000CDCFFE01E20FF31F8193919322503109CB
:1033800039832883D7CF2091E8033091E903232B99
:1033900041F420910201309103013093E90320931D
:1033A000E80320910001309101012115310541F41C
:1033B0002DB73EB74091040150910501241B350BF8
:1033C000E091E803F091E903E217F307A0F42E1B64
:1033D0003F0B2817390778F0AC014E5F5F4F241779
:1033E000350748F04E0F5F1F5093E9034093E80301
:1033F000819391939FCFF0E0E0E09CCFCF93DF9358
:103400000097E9F0FC01329713821282A091EA033F
:10341000B091EB03ED0130E020E01097A1F42081A2
:103420003181820F931F2091E8033091E90328171F
:10343000390709F061C0F093E903E093E803DF91F5
:10344000CF910895EA01CE17DF07E8F54A815B8145
:103450009E0141155105B1F7E901FB83EA834991CA
:103460005991C40FD51FEC17FD0761F4808191813C
:103470000296840F951FE901998388838281938145
:103480009B838A83F0E0E0E012968D919C911397E4
:103490000097B9F52D913C911197CD010296820FBD
:1034A000931F2091E8033091E9032817390739F673
:1034B000309751F51092EB031092EA03B093E903B1
:1034C000A093E803BCCFD383C28340815181840F92
:1034D000951FC817D90761F44E5F5F4F88819981A6
:1034E000480F591F518340838A819B819383828334
:1034F0002115310509F0B0CFF093EB03E093EA0317
:103500009ECFFD01DC01C0CF13821282D7CF10E025
:10351000CFEDD0E004C0FE010E944D192196C03EBF
:08352000D107C9F7F894FFCFB1
:103528000000EC03800000000000F20152017F015E
:103538003F02B0018E01A20100000000F906CC068E
:1035480062076204C506B206A30600000000630411
:10355800520162076204BF04D7044A040000000055
:10356800F0095201620761076E616E00696E6600BC
:103578006F7666004572726F72000D0A0054656DB1
:1035880070203D20005248203D2000507265737322
:10359800757265203D2000436C6561722057656136
:1035A80074686572005261696E7920576561746844
:0435B8006572000038
:00000001FF
